:020000040800F2
:1000000000800120450600089506000895060008B6
:1000100095060008950600089506000800000000F7
:10002000000000000000000000000000950600082D
:10003000000000000000000095060008A10500086F
:100040009506000895060008950600089506000824
:100050009506000895060008950600089506000814
:100060009506000895060008950600089506000804
:1000700095060008950600089506000895060008F4
:1000800095060008950600089506000895060008E4
:1000900095060008950600089506000895060008D4
:1000A00095060008950600089506000895060008C4
:1000B00095060008950600089506000895060008B4
:1000C00095060008950600089506000895060008A4
:1000D0009506000895060008110600089506000818
:1000E00055050008950600089506000895060008C5
:1000F0009506000895060008950600089506000874
:100100009506000895060008950600089506000863
:100110009506000895060008950600089506000853
:100120009506000895060008950600089506000843
:100130009506000895060008950600089506000833
:100140009506000895060008950600089506000823
:100150009506000895060008950600089506000813
:100160009506000895060008950600089506000803
:1001700095060008950600089506000895060008F3
:0401800095060008D8
:1001840010B5054C237833B9044B13B10448AFF3CD
:1001940000800123237010BD040000200000000033
:1001A4009806000808B5034B1BB103490348AFF395
:1001B400008008BD00000000080000209806000828
:1001C40070B50D4D0D4C641BA4100026A64209D138
:1001D4000B4D0C4C00F05EFA641BA4100026A642E2
:1001E40005D170BD55F8043B98470136EEE755F844
:1001F400043B98470136F2E7C8060008C806000821
:10020400C8060008D006000870477047024B13B1B7
:10021400024800F005B870470000000031020008F1
:10022400002301461A46184600F014B838B5074DA5
:10023400074C641BA4101CB9BDE8384000F030BA68
:10024400013C55F824309847F5E700BFD006000874
:10025400D40600082DE9F047DFF874A00646DAF862
:10026400000098460F469146FFF7CEFF164B1C68D8
:100274000CB9164C1C606568DAF800001F2D05DD0A
:10028400FFF7C3FF4FF0FF30BDE8F0879EB104EBEA
:1002940085010122C1F88890D4F88831AA4013431B
:1002A400C4F88831022EC1F8088102BFD4F88C3119
:1002B4001343C4F88C316B1C0235636044F8257019
:1002C400FFF7A3FF0020DFE7240000202800002020
:1002D4000000002008B50A4B1B78012B00D008BD94
:1002E40000F050F9074B1B68C01A41F2873398425B
:1002F400F5D9002000F0EEF8014B00221A70EEE769
:10030400BC010020B801002008B5012806D002284D
:100314000ED04F2813D043281CD008BD00F0DAF8C3
:10032400104B01221A7000F02DF90F4B1860F4E7FE
:10033400012000F0CFF80B4B02221A70EDE70120E8
:1003440000F0C8F8074B01221A7000F01BF9064BA5
:100354001860E2E7002000F0BDF8024B00221A709A
:10036400DBE700BFBC010020B801002010B500F09D
:10037400FFF800F073F800F019F9134800F02EF9B3
:1003840000F006F9002410E000F0FCF8044600F048
:10039400B0F800F0FDF80EE0FFF7B6FF0FE0FFF74E
:1003A400B3FFFFF797FF00F0F9F800F0EBF8031B39
:1003B400B3F5FA7FE8D200F0A3F80028ECD100F0FE
:1003C4001DF90028EBD1ECE7B00600081B4AD36CFA
:1003D40043F00103D3644FF090431A6822F03002D3
:1003E4001A601A6842F020021A601A6822F0C002E9
:1003F4001A601A6842F080021A601A6A22F4706263
:100404001A621A6A42F4E0621A621A6A22F47042A8
:100414001A621A6A42F4E0421A629A6842F030029E
:100424009A609A6842F0C0029A60DA6822F0300258
:10043400DA60DA6822F0C002DA6070470010024025
:10044400036849004FF0030C0CFA01FC23EA0C0387
:10045400036003688A4013430360704708B51B4B6D
:10046400DA6C42F00502DA641A6E42F001021A668E
:10047400A3F588335A6922F0F0025A615A6942F0AE
:1004840020025A6103F58063DA6842F40052DA60AC
:100494009A6822F400529A601A6842F400521A6070
:1004A400012205214FF09040FFF7CAFF00220D21E1
:1004B4000748FFF7C5FF4FF0E022D2F8043143F4B8
:1004C4008073C2F80431FFF781FF08BD00100240B9
:1004D4000008004830B14FF09042536943F01003D4
:1004E400536170474FF09042536923F010035361F6
:1004F40070474FF09042536983F020035361704773
:10050400014B1878704700BFC401002008B500F003
:1005140039F80D4B1B68C01A312800D808BD00F00B
:1005240031F8094B1B68C01AB0F5FA7F07D9074B9D
:1005340001221A7000F026F8034B1860EEE7034B13
:1005440002221A70F6E700BFC0010020C401002097
:1005540008B5064B5B6913F4005F00D108BD034B7B
:100564004FF400525A61FFF7D1FFF7E7000401404E
:100574004FF0E02304221A6140F69F725A61072269
:100584001A617047014B1868704700BFC80100200A
:10059400014B00221A607047C8010020024A136808
:1005A40001331360704700BFC801002008B5FFF78E
:1005B4000DFF084A936D43F400339365A2F5E632C8
:1005C400136843F020031360034A536843F0400365
:1005D400536008BD0010024000E100E007E0064B54
:1005E400DB6913F0800FFAD00130034B9A62027872
:1005F400002AF4D1704700BF00440040024B187831
:1006040000221A70704700BFCC0100200A4BDB693E
:1006140013F0200F06D0084B5B6ADBB24F2B02D0DD
:10062400432B04D07047054B01221A707047034BCB
:1006340002221A70F6E700BF00440040CC010020FB
:100644000D488546AFF300800C480D490D4A002340
:1006540002E0D458C4500433C4188C42F9D30A4A73
:100664000A4C002301E013600432A242FBD3FFF7DB
:10067400A7FDFFF77BFEFEE70080012000000020BD
:1006840004000020D406000804000020D00100204B
:10069400FEE70000F8B500BFF8BC08BC9E467047F2
:0C06A400F8B500BFF8BC08BC9E467047CB
:1006B00053797374656D20496E697469616C697AE8
:0806C00065640D0A0000000052
:0806C80011020008A90100085D
:0406D0008501000898
:0406D40020000020E2
:0400000508000645A4
:00000001FF
